{
    "abi": [
        {
            "type": "constructor",
            "inputs": [
                {
                    "name": "_royaltyReceiver",
                    "type": "address",
                    "internalType": "address"
                },
                {
                    "name": "_royaltyBps",
                    "type": "uint16",
                    "internalType": "uint16"
                },
                {
                    "name": "_contractImageURI",
                    "type": "string",
                    "internalType": "string"
                },
                {
                    "name": "_baseImageURI",
                    "type": "string",
                    "internalType": "string"
                },
                {
                    "name": "_mintingPrice",
                    "type": "uint256",
                    "internalType": "uint256"
                },
                {
                    "name": "_treasury",
                    "type": "address",
                    "internalType": "address"
                },
                {
                    "name": "_owner",
                    "type": "address",
                    "internalType": "address"
                }
            ],
            "stateMutability": "nonpayable"
        },
        {
            "type": "function",
            "name": "approve",
            "inputs": [
                {
                    "name": "spender",
                    "type": "address",
                    "internalType": "address"
                },
                {
                    "name": "id",
                    "type": "uint256",
                    "internalType": "uint256"
                }
            ],
            "outputs": [],
            "stateMutability": "nonpayable"
        },
        {
            "type": "function",
            "name": "balanceOf",
            "inputs": [
                {
                    "name": "owner",
                    "type": "address",
                    "internalType": "address"
                }
            ],
            "outputs": [
                {
                    "name": "",
                    "type": "uint256",
                    "internalType": "uint256"
                }
            ],
            "stateMutability": "view"
        },
        {
            "type": "function",
            "name": "contractURI",
            "inputs": [],
            "outputs": [
                {
                    "name": "",
                    "type": "string",
                    "internalType": "string"
                }
            ],
            "stateMutability": "view"
        },
        {
            "type": "function",
            "name": "dataOf",
            "inputs": [
                {
                    "name": "tokenId",
                    "type": "uint256",
                    "internalType": "uint256"
                }
            ],
            "outputs": [
                {
                    "name": "",
                    "type": "bytes",
                    "internalType": "bytes"
                }
            ],
            "stateMutability": "view"
        },
        {
            "type": "function",
            "name": "getApproved",
            "inputs": [
                {
                    "name": "",
                    "type": "uint256",
                    "internalType": "uint256"
                }
            ],
            "outputs": [
                {
                    "name": "",
                    "type": "address",
                    "internalType": "address"
                }
            ],
            "stateMutability": "view"
        },
        {
            "type": "function",
            "name": "isApprovedForAll",
            "inputs": [
                {
                    "name": "",
                    "type": "address",
                    "internalType": "address"
                },
                {
                    "name": "",
                    "type": "address",
                    "internalType": "address"
                }
            ],
            "outputs": [
                {
                    "name": "",
                    "type": "bool",
                    "internalType": "bool"
                }
            ],
            "stateMutability": "view"
        },
        {
            "type": "function",
            "name": "mint",
            "inputs": [
                {
                    "name": "data",
                    "type": "bytes",
                    "internalType": "bytes"
                }
            ],
            "outputs": [],
            "stateMutability": "payable"
        },
        {
            "type": "function",
            "name": "mintingPrice",
            "inputs": [],
            "outputs": [
                {
                    "name": "",
                    "type": "uint256",
                    "internalType": "uint256"
                }
            ],
            "stateMutability": "view"
        },
        {
            "type": "function",
            "name": "name",
            "inputs": [],
            "outputs": [
                {
                    "name": "",
                    "type": "string",
                    "internalType": "string"
                }
            ],
            "stateMutability": "view"
        },
        {
            "type": "function",
            "name": "owner",
            "inputs": [],
            "outputs": [
                {
                    "name": "",
                    "type": "address",
                    "internalType": "address"
                }
            ],
            "stateMutability": "view"
        },
        {
            "type": "function",
            "name": "ownerOf",
            "inputs": [
                {
                    "name": "id",
                    "type": "uint256",
                    "internalType": "uint256"
                }
            ],
            "outputs": [
                {
                    "name": "owner",
                    "type": "address",
                    "internalType": "address"
                }
            ],
            "stateMutability": "view"
        },
        {
            "type": "function",
            "name": "royaltyBps",
            "inputs": [],
            "outputs": [
                {
                    "name": "",
                    "type": "uint16",
                    "internalType": "uint16"
                }
            ],
            "stateMutability": "view"
        },
        {
            "type": "function",
            "name": "royaltyInfo",
            "inputs": [
                {
                    "name": "",
                    "type": "uint256",
                    "internalType": "uint256"
                },
                {
                    "name": "salePrice",
                    "type": "uint256",
                    "internalType": "uint256"
                }
            ],
            "outputs": [
                {
                    "name": "receiver",
                    "type": "address",
                    "internalType": "address"
                },
                {
                    "name": "royaltyAmount",
                    "type": "uint256",
                    "internalType": "uint256"
                }
            ],
            "stateMutability": "view"
        },
        {
            "type": "function",
            "name": "royaltyReceiver",
            "inputs": [],
            "outputs": [
                {
                    "name": "",
                    "type": "address",
                    "internalType": "address"
                }
            ],
            "stateMutability": "view"
        },
        {
            "type": "function",
            "name": "safeTransferFrom",
            "inputs": [
                {
                    "name": "from",
                    "type": "address",
                    "internalType": "address"
                },
                {
                    "name": "to",
                    "type": "address",
                    "internalType": "address"
                },
                {
                    "name": "id",
                    "type": "uint256",
                    "internalType": "uint256"
                }
            ],
            "outputs": [],
            "stateMutability": "nonpayable"
        },
        {
            "type": "function",
            "name": "safeTransferFrom",
            "inputs": [
                {
                    "name": "from",
                    "type": "address",
                    "internalType": "address"
                },
                {
                    "name": "to",
                    "type": "address",
                    "internalType": "address"
                },
                {
                    "name": "id",
                    "type": "uint256",
                    "internalType": "uint256"
                },
                {
                    "name": "data",
                    "type": "bytes",
                    "internalType": "bytes"
                }
            ],
            "outputs": [],
            "stateMutability": "nonpayable"
        },
        {
            "type": "function",
            "name": "setApprovalForAll",
            "inputs": [
                {
                    "name": "operator",
                    "type": "address",
                    "internalType": "address"
                },
                {
                    "name": "approved",
                    "type": "bool",
                    "internalType": "bool"
                }
            ],
            "outputs": [],
            "stateMutability": "nonpayable"
        },
        {
            "type": "function",
            "name": "supportsInterface",
            "inputs": [
                {
                    "name": "interfaceId",
                    "type": "bytes4",
                    "internalType": "bytes4"
                }
            ],
            "outputs": [
                {
                    "name": "",
                    "type": "bool",
                    "internalType": "bool"
                }
            ],
            "stateMutability": "view"
        },
        {
            "type": "function",
            "name": "symbol",
            "inputs": [],
            "outputs": [
                {
                    "name": "",
                    "type": "string",
                    "internalType": "string"
                }
            ],
            "stateMutability": "view"
        },
        {
            "type": "function",
            "name": "tokenURI",
            "inputs": [
                {
                    "name": "tokenId",
                    "type": "uint256",
                    "internalType": "uint256"
                }
            ],
            "outputs": [
                {
                    "name": "",
                    "type": "string",
                    "internalType": "string"
                }
            ],
            "stateMutability": "view"
        },
        {
            "type": "function",
            "name": "transferFrom",
            "inputs": [
                {
                    "name": "from",
                    "type": "address",
                    "internalType": "address"
                },
                {
                    "name": "to",
                    "type": "address",
                    "internalType": "address"
                },
                {
                    "name": "id",
                    "type": "uint256",
                    "internalType": "uint256"
                }
            ],
            "outputs": [],
            "stateMutability": "nonpayable"
        },
        {
            "type": "function",
            "name": "transferOwnership",
            "inputs": [
                {
                    "name": "newOwner",
                    "type": "address",
                    "internalType": "address"
                }
            ],
            "outputs": [],
            "stateMutability": "nonpayable"
        },
        {
            "type": "function",
            "name": "treasury",
            "inputs": [],
            "outputs": [
                {
                    "name": "",
                    "type": "address",
                    "internalType": "address"
                }
            ],
            "stateMutability": "view"
        },
        {
            "type": "function",
            "name": "updateBaseImageURI",
            "inputs": [
                {
                    "name": "imageURI",
                    "type": "string",
                    "internalType": "string"
                }
            ],
            "outputs": [],
            "stateMutability": "nonpayable"
        },
        {
            "type": "function",
            "name": "updateContractImageURI",
            "inputs": [
                {
                    "name": "imageURI",
                    "type": "string",
                    "internalType": "string"
                }
            ],
            "outputs": [],
            "stateMutability": "nonpayable"
        },
        {
            "type": "function",
            "name": "updateMintingPrice",
            "inputs": [
                {
                    "name": "price",
                    "type": "uint256",
                    "internalType": "uint256"
                }
            ],
            "outputs": [],
            "stateMutability": "nonpayable"
        },
        {
            "type": "function",
            "name": "updateRoyaltyInfo",
            "inputs": [
                {
                    "name": "receiver",
                    "type": "address",
                    "internalType": "address"
                },
                {
                    "name": "bps",
                    "type": "uint16",
                    "internalType": "uint16"
                }
            ],
            "outputs": [],
            "stateMutability": "nonpayable"
        },
        {
            "type": "function",
            "name": "updateTreasury",
            "inputs": [
                {
                    "name": "_treasury",
                    "type": "address",
                    "internalType": "address"
                }
            ],
            "outputs": [],
            "stateMutability": "nonpayable"
        },
        {
            "type": "event",
            "name": "Approval",
            "inputs": [
                {
                    "name": "owner",
                    "type": "address",
                    "indexed": true,
                    "internalType": "address"
                },
                {
                    "name": "spender",
                    "type": "address",
                    "indexed": true,
                    "internalType": "address"
                },
                {
                    "name": "id",
                    "type": "uint256",
                    "indexed": true,
                    "internalType": "uint256"
                }
            ],
            "anonymous": false
        },
        {
            "type": "event",
            "name": "ApprovalForAll",
            "inputs": [
                {
                    "name": "owner",
                    "type": "address",
                    "indexed": true,
                    "internalType": "address"
                },
                {
                    "name": "operator",
                    "type": "address",
                    "indexed": true,
                    "internalType": "address"
                },
                {
                    "name": "approved",
                    "type": "bool",
                    "indexed": false,
                    "internalType": "bool"
                }
            ],
            "anonymous": false
        },
        {
            "type": "event",
            "name": "Mint",
            "inputs": [
                {
                    "name": "tokenId",
                    "type": "uint256",
                    "indexed": true,
                    "internalType": "uint256"
                },
                {
                    "name": "minter",
                    "type": "address",
                    "indexed": true,
                    "internalType": "address"
                },
                {
                    "name": "price",
                    "type": "uint256",
                    "indexed": false,
                    "internalType": "uint256"
                }
            ],
            "anonymous": false
        },
        {
            "type": "event",
            "name": "OwnershipTransferred",
            "inputs": [
                {
                    "name": "user",
                    "type": "address",
                    "indexed": true,
                    "internalType": "address"
                },
                {
                    "name": "newOwner",
                    "type": "address",
                    "indexed": true,
                    "internalType": "address"
                }
            ],
            "anonymous": false
        },
        {
            "type": "event",
            "name": "Transfer",
            "inputs": [
                {
                    "name": "from",
                    "type": "address",
                    "indexed": true,
                    "internalType": "address"
                },
                {
                    "name": "to",
                    "type": "address",
                    "indexed": true,
                    "internalType": "address"
                },
                {
                    "name": "id",
                    "type": "uint256",
                    "indexed": true,
                    "internalType": "uint256"
                }
            ],
            "anonymous": false
        },
        {
            "type": "event",
            "name": "UpdateBaseImageURI",
            "inputs": [
                {
                    "name": "imageURI",
                    "type": "string",
                    "indexed": false,
                    "internalType": "string"
                }
            ],
            "anonymous": false
        },
        {
            "type": "event",
            "name": "UpdateContractImageURI",
            "inputs": [
                {
                    "name": "imageURI",
                    "type": "string",
                    "indexed": false,
                    "internalType": "string"
                }
            ],
            "anonymous": false
        },
        {
            "type": "event",
            "name": "UpdateMintingPrice",
            "inputs": [
                {
                    "name": "mintingPrice",
                    "type": "uint256",
                    "indexed": false,
                    "internalType": "uint256"
                }
            ],
            "anonymous": false
        },
        {
            "type": "event",
            "name": "UpdateRoyaltyInfo",
            "inputs": [
                {
                    "name": "receiver",
                    "type": "address",
                    "indexed": true,
                    "internalType": "address"
                },
                {
                    "name": "bps",
                    "type": "uint16",
                    "indexed": false,
                    "internalType": "uint16"
                }
            ],
            "anonymous": false
        },
        {
            "type": "event",
            "name": "UpdateTreasury",
            "inputs": [
                {
                    "name": "treasury",
                    "type": "address",
                    "indexed": true,
                    "internalType": "address"
                }
            ],
            "anonymous": false
        },
        {
            "type": "error",
            "name": "InsufficientPrice",
            "inputs": []
        }
    ],
    "bytecode": {
        "object": "0x60806040523462000703576200244c803803806200001d8162000728565b928339810160e082820312620007035762000038826200074e565b91602081015161ffff81168103620007035760408201516001600160401b0381116200070357836200006c91840162000763565b606083015190936001600160401b03821162000703576200008f91840162000763565b90608083015191620000b260c0620000aa60a087016200074e565b95016200074e565b94620000bd62000708565b9660099384895268436172746f7563686560b81b60208a0152620000e062000708565b600381526243544360e81b6020820152600080546001600160a01b039a8b166001600160a01b031991821681178355909b917f8be0079c531659141344cd1fd0a4f28419497f9722a3daafe3b4186f6b6457e08180a38051906001600160401b0382116200040e5760015490600182811c92168015620006f8575b6020831014620003ed5781601f84931162000694575b50602090601f83116001146200061a576000926200060e575b50508160011b916000199060031b1c1916176001555b8051906001600160401b0382116200040e5760025490600182811c9216801562000603575b6020831014620003ed5781601f8493116200059f575b50602090601f8311600114620005255760009262000519575b50508160011b916000199060031b1c1916176002555b600780546001600160b01b0319169289169290921760a09190911b61ffff60a01b161790558051906001600160401b0382116200040e5760085490600182811c921680156200050e575b6020831014620003ed5781601f849311620004aa575b50602090601f8311600114620004305760009262000424575b50508160011b916000199060031b1c1916176008555b8051906001600160401b0382116200040e57825490600182811c9216801562000403575b6020831014620003ed5781601f84931162000395575b50602090601f83116001146200032a576000926200031e575b50508160011b916000199060031b1c19161790555b600a551690600b541617600b55604051611c169081620007d68239f35b015190503880620002ec565b6000858152602081209350601f198516905b8181106200037c575090846001959493921062000362575b505050811b01905562000301565b015160001960f88460031b161c1916905538808062000354565b929360206001819287860151815501950193016200033c565b909150836000526020600020601f840160051c81019160208510620003e2575b90601f859493920160051c01905b818110620003d25750620002d3565b60008155849350600101620003c3565b9091508190620003b5565b634e487b7160e01b600052602260045260246000fd5b91607f1691620002bd565b634e487b7160e01b600052604160045260246000fd5b01519050388062000283565b600860009081526000805160206200240c8339815191529350601f198516905b81811062000491575090846001959493921062000477575b505050811b0160085562000299565b015160001960f88460031b161c1916905538808062000468565b9293602060018192878601518155019501930162000450565b60086000529091506000805160206200240c833981519152601f840160051c8101916020851062000503575b90601f859493920160051c01905b818110620004f357506200026a565b60008155849350600101620004e4565b9091508190620004d6565b91607f169162000254565b015190503880620001f4565b60026000908152600080516020620023ec8339815191529350601f198516905b8181106200058657509084600195949392106200056c575b505050811b016002556200020a565b015160001960f88460031b161c191690553880806200055d565b9293602060018192878601518155019501930162000545565b6002600052909150600080516020620023ec833981519152601f840160051c81019160208510620005f8575b90601f859493920160051c01905b818110620005e85750620001db565b60008155849350600101620005d9565b9091508190620005cb565b91607f1691620001c5565b0151905038806200018a565b600160009081526000805160206200242c8339815191529350601f198516905b8181106200067b575090846001959493921062000661575b505050811b01600155620001a0565b015160001960f88460031b161c1916905538808062000652565b929360206001819287860151815501950193016200063a565b60016000529091506000805160206200242c833981519152601f840160051c81019160208510620006ed575b90601f859493920160051c01905b818110620006dd575062000171565b60008155849350600101620006ce565b9091508190620006c0565b91607f16916200015b565b600080fd5b60408051919082016001600160401b038111838210176200040e57604052565b6040519190601f01601f191682016001600160401b038111838210176200040e57604052565b51906001600160a01b03821682036200070357565b919080601f84011215620007035782516001600160401b0381116200040e5760209062000799601f8201601f1916830162000728565b92818452828287010111620007035760005b818110620007c157508260009394955001015290565b8581018301518482018401528201620007ab56fe60806040908082526004918236101561001757600080fd5b600092833560e01c92836301ffc9a7146112e55750826306fdde0314611231578263081812fc146111fd578263095ea7b31461114d57826323b872dd146111355782632a55205a146110d357826335db70b5146110b457826342842e0e14610ff35782635788ff3614610fac5782635c25302014610e1557826361d027b314610dec5782636352211e14610d8357826370a0823114610d155782637712910914610c815782637ba0e2e714610a005782637f51bb1f146109a2578263871caa98146108d85782638d0ca2ac146107105782638da5cb5b146106e857826395d89b41146105fe5782639fbc8713146105d5578263a22cb46514610550578263b88d4fde1461040b578263c63adb2b146103e5578263c87b56dd1461032057508163e8a3d4851461021c578163e985e9c5146101ca575063f2fde38b1461015b57600080fd5b346101c75760203660031901126101c757610174611426565b8154906001600160a01b039061018d3383851614611759565b1680916001600160601b0360a01b16178255337f8be0079c531659141344cd1fd0a4f28419497f9722a3daafe3b4186f6b6457e08380a380f35b80fd5b90503461021857806003193601126102185760ff816020936101ea611426565b6101f2611441565b6001600160a01b0391821683526006875283832091168252855220549151911615158152f35b5080fd5b82346101c757806003193601126101c7576102356117d8565b61023d6117d8565b8351918360085461024d81611350565b90818652602096600191886001821691826000146102f95750506001146102a0575b50505091839161028761029c9561028c9503846113bc565b6118bd565b9251928284938452830190611401565b0390f35b9190879350600883527ff3f7a9fe364faab93b216da50a3214154f22a0a2b415b23a84c8169e8b636ee35b8284106102e4575050508401018161028761029c61026f565b805488850186015288949093019281016102cb565b60ff1916818a015293151560051b88019093019350849250610287915061029c905061026f565b909150346103e15760203660031901126103e15761029c926103ce91359061037b61035e6103536103586103538661180e565b611794565b9461180e565b9185519061036b8261138a565b815261037561184d565b906119cc565b91610287603a865180957f646174613a696d6167652f7376672b786d6c3b6261736536342c00000000000060208301526103be81518092602086860191016113de565b810103601a8101865201846113bc565b9051918291602083526020830190611401565b8280fd5b83823461021857816003193601126102185760209061ffff60075460a01c169051908152f35b909150346103e15760803660031901126103e157610427611426565b90610430611441565b6044359060643567ffffffffffffffff811161054c576104539036908501611511565b9061045f8484886115bc565b823b15958615610477575b8861047488611703565b80f35b8751630a85bd0160e11b80825233978201979097526001600160a01b03918216602482015260448101959095526080606486015260848501839052949550929391928492918391819060a48401378881830160a40152601f1990601f011681010360a40192169181875a94602095f190811561053f5761047493508491610510575b506001600160e01b0319161438808080808061046a565b610532915060203d602011610538575b61052a81836113bc565b8101906116e3565b386104f9565b503d610520565b50505051903d90823e3d90fd5b8680fd5b83823461021857806003193601126102185761056a611426565b90602435908115158092036105d15733845260066020528084209260018060a01b03169283855260205280842060ff1981541660ff8416179055519081527f17307eab39ab6107e8899845ad3d59bd9653f200f220920489ca2b5937696c3160203392a380f35b8380fd5b83823461021857816003193601126102185760075490516001600160a01b039091168152602090f35b5082346101c757806003193601126101c757815191828260025461062181611350565b90818452602095600191876001821691826000146106c1575050600114610665575b50505061029c92916106569103856113bc565b51928284938452830190611401565b9190869350600283527f405787fa12a823e0f2b7631cc41b3ba8828b3321ca811111fa75cd3aa3bb5ace5b8284106106a9575050508201018161065661029c610643565b8054848a018601528895508794909301928101610690565b60ff19168782015293151560051b86019093019350849250610656915061029c9050610643565b838234610218578160031936011261021857905490516001600160a01b039091168152602090f35b83823461021857610720366114a8565b9081519367ffffffffffffffff85116108c5575061073f600954611350565b601f811161086c575b50602093601f81116001146107c6579061079f826107b5949386977f28f91ea28daaf5c018c02d2838ac7ebcb1ed118b1dd17a7e09f13902a1d2b83a97916107bb575b508160011b916000199060031b1c19161790565b6009555b51918291602083526020830190611401565b0390a180f35b90508401518861078b565b600984527f6e1540171b6c0c960b71a7020d9f60077f6af931a8bbf590da0223dacf75c7af601f198216855b8181106108545750916001917f28f91ea28daaf5c018c02d2838ac7ebcb1ed118b1dd17a7e09f13902a1d2b83a9697826107b59796951061083b575b5050811b016009556107a3565b85015160001960f88460031b161c19169055878061082e565b858801518355602097880197600190930192016107f2565b6108b590600985527f6e1540171b6c0c960b71a7020d9f60077f6af931a8bbf590da0223dacf75c7af601f870160051c810191602088106108bb575b601f0160051c0190611742565b84610748565b90915081906108a8565b634e487b7160e01b845260419052602483fd5b9150346103e157602091826003193601126105d157358352600c825280832081519384918181549061090982611350565b928386526001928860018216918260001461097857505060011461093a575b858861029c89610656848a03856113bc565b87945081939291528383205b828410610960575050508201018161065661029c38610928565b8054848a018601528895508794909301928101610946565b60ff19168882015294151560051b87019094019450859350610656925061029c9150389050610928565b83346101c75760203660031901126101c7576001600160a01b036109c4611426565b16806001600160601b0360a01b600b541617600b557f1f54d231bb9d500b1923e4a1cb25e600f366a8368873d9af7c1c623814df19fc8280a280f35b8390602090816003193601126103e15767ffffffffffffffff938135858111610c7d57610a309036908401611511565b600a969196543403610c6e57600d549360001990818614610c5b5760019060018701600d55610a6033151561157c565b86895260038852858920546001600160a01b0316610c275733808a52818952868a2080546001019055878a5260038952868a2080546001600160a01b0319168217905587908a7fddf252ad1be2c89b69c2b068fc378daa952ba7f163c4a11628f55a4df523b3ef8180a4600c8852858920948411610c145750610ae38454611350565b601f8111610be6575b508791601f8411600114610b5c5750509080610b439288997f4e3883c75cc9c752bb1db2e406a822e4a75067ae77ad9a0a4d179f2709b9e1f697989992610b51575b50508160011b916000199060031b1c19161790565b90555b51923484523393a380f35b013590508980610b2e565b8489528789209291601f198516908a905b828210610bcf575050917f4e3883c75cc9c752bb1db2e406a822e4a75067ae77ad9a0a4d179f2709b9e1f69798999a9185600196959410610bb7575b50505050811b019055610b46565b60f88560031b161c1991013516905588808080610ba9565b8c850135865594850194938a0193908a0190610b6d565b610c0e90858a52888a20601f860160051c8101918a87106108bb57601f0160051c0190611742565b89610aec565b634e487b7160e01b895260419052602488fd5b855162461bcd60e51b8152908101889052600e60248201526d1053149150511657d3525395115160921b6044820152606490fd5b634e487b7160e01b885260119052602487fd5b50505163d548170360e01b8152fd5b8480fd5b838234610218578060031936011261021857610c9b611426565b9060243561ffff8116808203610c7d577f597a774a73a46b0920c09b81b60917706997663af2e46365892114234c0ede109260209260018060a01b03610ce5818954163314611759565b600754961695869161ffff60a01b9060a01b169069ffffffffffffffffffff60b01b16171760075551908152a280f35b9083346101c75760203660031901126101c7576001600160a01b03610d38611426565b168015610d515781526020928352819020549051908152f35b825162461bcd60e51b8152602081860152600c60248201526b5a45524f5f4144445245535360a01b6044820152606490fd5b83346101c75760203660031901126101c757813581526003602052829020546001600160a01b0316908115610dbc575060209151908152f35b606490602084519162461bcd60e51b8352820152600a6024820152691393d517d3525395115160b21b6044820152fd5b838234610218578160031936011261021857600b5490516001600160a01b039091168152602090f35b83823461021857610e25366114a8565b9081519367ffffffffffffffff85116108c55750610e44600854611350565b601f8111610f5e575b50602093601f8111600114610eb85790610ea3826107b5949386977f511254944831878943ab1e4299030bd986bec9861fe1469bd128d00b31322e0c97916107bb57508160011b916000199060031b1c19161790565b60085551918291602083526020830190611401565b600884527ff3f7a9fe364faab93b216da50a3214154f22a0a2b415b23a84c8169e8b636ee3601f198216855b818110610f465750916001917f511254944831878943ab1e4299030bd986bec9861fe1469bd128d00b31322e0c9697826107b597969510610f2d575b5050811b016008556107a3565b85015160001960f88460031b161c191690558780610f20565b85880151835560209788019760019093019201610ee4565b610fa690600885527ff3f7a9fe364faab93b216da50a3214154f22a0a2b415b23a84c8169e8b636ee3601f870160051c810191602088106108bb57601f0160051c0190611742565b84610e4d565b909150346103e15760203660031901126103e1577f348f59975394c333520d3224e2545a98510020681517081e0f91aa575f14d8d191602091359081600a5551908152a180f35b909150346103e15761100436611457565b9061101282828596956115bc565b803b15938415611027575b8661047486611703565b60209293945060a4908760018060a01b03809489519788968795630a85bd0160e11b9b8c88523390880152166024860152604485015260806064850152826084850152165af190811561053f5761047493508491611095575b506001600160e01b031916143880808061101d565b6110ae915060203d6020116105385761052a81836113bc565b38611080565b838234610218578160031936011261021857602090600a549051908152f35b83346101c757826003193601126101c757602435906007549261ffff8460a01c169283810293818504149015171561112257505082516001600160a01b03909216825261271090046020820152f35b634e487b7160e01b825260119052602490fd5b83346101c75761047461114736611457565b916115bc565b838234610218578060031936011261021857611167611426565b60243580845260036020528284205490926001600160a01b03918216919033831480156111de575b6111989061153f565b84865260056020528520921691826001600160601b0360a01b8254161790557f8c5be1e5ebec7d5bd14f71427d1e84f3dd0314c0f7b2291e5b200ac8c7c3b9258480a480f35b508286526006602090815281872033885290528086205460ff1661118f565b909150346103e15760203660031901126103e15735825260056020908152918190205490516001600160a01b039091168152f35b5082346101c757806003193601126101c75781519182826001936001549461125886611350565b91828552602096876001821691826000146106c15750506001146112895750505061029c92916106569103856113bc565b9190869350600183527fb10e2d527612073b26eecdfd717e6a320cf44b4afac2b0732d9fcbe2b7fa0cf65b8284106112cd575050508201018161065661029c610643565b8054848a0186015288955087949093019281016112b4565b8491346103e15760203660031901126103e1573563ffffffff60e01b81168091036103e157602092506301ffc9a760e01b811490811561133f575b811561132e575b5015158152f35b635b5e139f60e01b14905083611327565b6380ac58cd60e01b81149150611320565b90600182811c92168015611380575b602083101461136a57565b634e487b7160e01b600052602260045260246000fd5b91607f169161135f565b6020810190811067ffffffffffffffff8211176113a657604052565b634e487b7160e01b600052604160045260246000fd5b90601f8019910116810190811067ffffffffffffffff8211176113a657604052565b60005b8381106113f15750506000910152565b81810151838201526020016113e1565b9060209161141a815180928185528580860191016113de565b601f01601f1916010190565b600435906001600160a01b038216820361143c57565b600080fd5b602435906001600160a01b038216820361143c57565b606090600319011261143c576001600160a01b0390600435828116810361143c5791602435908116810361143c579060443590565b67ffffffffffffffff81116113a657601f01601f191660200190565b602060031982011261143c5760043567ffffffffffffffff811161143c578160238201121561143c578060040135906114e08261148c565b926114ee60405194856113bc565b8284526024838301011161143c5781600092602460209301838601378301015290565b9181601f8401121561143c5782359167ffffffffffffffff831161143c576020838186019501011161143c57565b1561154657565b60405162461bcd60e51b815260206004820152600e60248201526d1393d517d055551213d49256915160921b6044820152606490fd5b1561158357565b60405162461bcd60e51b81526020600482015260116024820152701253959053125117d49150d25412515395607a1b6044820152606490fd5b6000838152600360209081526040808320546001600160a01b03959486169490861685036116b25790611632867fddf252ad1be2c89b69c2b068fc378daa952ba7f163c4a11628f55a4df523b3ef959493169661161a88151561157c565b863314908115611695575b811561167f575b5061153f565b84835260048252808320600019815401905585835280832060018154019055868352600382526005818420926001600160601b0360a01b93888582541617905552822090815416905580a4565b905088855260058452828520541633143861162c565b8786526006855283862033875285528386205460ff169150611625565b815162461bcd60e51b815260048101849052600a60248201526957524f4e475f46524f4d60b01b6044820152606490fd5b9081602091031261143c57516001600160e01b03198116810361143c5790565b1561170a57565b60405162461bcd60e51b815260206004820152601060248201526f155394d0519157d49150d2541251539560821b6044820152606490fd5b81811061174d575050565b60008155600101611742565b1561176057565b60405162461bcd60e51b815260206004820152600c60248201526b15539055551213d49256915160a21b6044820152606490fd5b906117d6602b60405180946a436172746f75636865202360a81b60208301526117c681518092602086860191016113de565b810103600b8101855201836113bc565b565b604051906040820182811067ffffffffffffffff8211176113a6576040526009825268436172746f7563686560b81b6020830152565b9060405160a08101604052608081019260008452925b6000190192600a90603082820601855304928361182457809350608091030191601f1901918252565b604051906060820182811067ffffffffffffffff8211176113a657604052604082527f6768696a6b6c6d6e6f707172737475767778797a303132333435363738392b2f6040837f4142434445464748494a4b4c4d4e4f505152535455565758595a61626364656660208201520152565b603d9061197f6119b994611971604c6119c996604051938491602097693d913730b6b2911d101160b11b898501526118fe815180928b602a880191016113de565b830172111610113232b9b1b934b83a34b7b7111d101160691b602a82015261192e825180938b8d850191016113de565b016c1116101134b6b0b3b2911d101160991b89820152611957825180938a604a850191016113de565b0161227d60f01b604a82015203602c8101845201826113bc565b61197961184d565b90611b06565b60405194827f646174613a6170706c69636174696f6e2f6a736f6e3b6261736536342c0000008794850152825192839186860191016113de565b810103601d8101845201826113bc565b90565b919091805115611af05780519260029160028501809511611ada57600394859004600281901b93906001600160fe1b03811603611ada5794611a26611a108561148c565b94611a1e60405196876113bc565b80865261148c565b6020850190601f190136823792829183518401976020890192835194600085525b8a8110611a8d57505050506003939495965052510680600114611a7a57600214611a6f575090565b603d90600019015390565b50603d9081600019820153600119015390565b836004919b989b019a8b51600190603f9082828260121c16870101518453828282600c1c16870101518385015382828260061c168701015187850153168401015185820153019699611a47565b634e487b7160e01b600052601160045260246000fd5b509050604051611aff8161138a565b6000815290565b919091805115611af05780519260029160028501809511611ada57600394859004600281901b93906001600160fe1b03811603611ada5794611b4a611a108561148c565b6020850190601f190136823792829183518401976020890192835194600085525b8a8110611b9357505050506003939495965052510680600114611a7a57600214611a6f575090565b836004919b989b019a8b51600190603f9082828260121c16870101518453828282600c1c16870101518385015382828260061c168701015187850153168401015185820153019699611b6b56fea264697066735822122012cf6433902151668aa632945cb1ac7ef840f3ba2df4f9beb462e5925115a84264736f6c63430008180033405787fa12a823e0f2b7631cc41b3ba8828b3321ca811111fa75cd3aa3bb5acef3f7a9fe364faab93b216da50a3214154f22a0a2b415b23a84c8169e8b636ee3b10e2d527612073b26eecdfd717e6a320cf44b4afac2b0732d9fcbe2b7fa0cf6",
        "linkReferences": {}
    },
    "methodIdentifiers": {
        "approve(address,uint256)": "095ea7b3",
        "balanceOf(address)": "70a08231",
        "contractURI()": "e8a3d485",
        "dataOf(uint256)": "871caa98",
        "getApproved(uint256)": "081812fc",
        "isApprovedForAll(address,address)": "e985e9c5",
        "mint(bytes)": "7ba0e2e7",
        "mintingPrice()": "35db70b5",
        "name()": "06fdde03",
        "owner()": "8da5cb5b",
        "ownerOf(uint256)": "6352211e",
        "royaltyBps()": "c63adb2b",
        "royaltyInfo(uint256,uint256)": "2a55205a",
        "royaltyReceiver()": "9fbc8713",
        "safeTransferFrom(address,address,uint256)": "42842e0e",
        "safeTransferFrom(address,address,uint256,bytes)": "b88d4fde",
        "setApprovalForAll(address,bool)": "a22cb465",
        "supportsInterface(bytes4)": "01ffc9a7",
        "symbol()": "95d89b41",
        "tokenURI(uint256)": "c87b56dd",
        "transferFrom(address,address,uint256)": "23b872dd",
        "transferOwnership(address)": "f2fde38b",
        "treasury()": "61d027b3",
        "updateBaseImageURI(string)": "8d0ca2ac",
        "updateContractImageURI(string)": "5c253020",
        "updateMintingPrice(uint256)": "5788ff36",
        "updateRoyaltyInfo(address,uint16)": "77129109",
        "updateTreasury(address)": "7f51bb1f"
    },
    "id": 3
}